{
  "contractName": "VoteContract",
  "abi": [
    {
      "constant": true,
      "inputs": [
        {
          "name": "",
          "type": "uint256"
        }
      ],
      "name": "CandidateDetails",
      "outputs": [
        {
          "name": "id",
          "type": "uint256"
        },
        {
          "name": "name",
          "type": "string"
        },
        {
          "name": "numOfVote",
          "type": "uint256"
        }
      ],
      "payable": false,
      "stateMutability": "view",
      "type": "function"
    },
    {
      "constant": true,
      "inputs": [],
      "name": "owner",
      "outputs": [
        {
          "name": "",
          "type": "address"
        }
      ],
      "payable": false,
      "stateMutability": "view",
      "type": "function"
    },
    {
      "inputs": [],
      "payable": false,
      "stateMutability": "nonpayable",
      "type": "constructor"
    },
    {
      "constant": true,
      "inputs": [],
      "name": "getOwner",
      "outputs": [
        {
          "name": "",
          "type": "address"
        }
      ],
      "payable": false,
      "stateMutability": "view",
      "type": "function"
    },
    {
      "constant": false,
      "inputs": [
        {
          "name": "_name",
          "type": "string"
        }
      ],
      "name": "addCandidate",
      "outputs": [],
      "payable": false,
      "stateMutability": "nonpayable",
      "type": "function"
    },
    {
      "constant": true,
      "inputs": [],
      "name": "getNumberOfCandidate",
      "outputs": [
        {
          "name": "",
          "type": "uint256"
        }
      ],
      "payable": false,
      "stateMutability": "view",
      "type": "function"
    }
  ],
  "bytecode": "0x608060405234801561001057600080fd5b50336000806101000a81548173ffffffffffffffffffffffffffffffffffffffff021916908373ffffffffffffffffffffffffffffffffffffffff160217905550600060018190555060006002819055506105c4806100706000396000f3fe60806040526004361061006d576000357c0100000000000000000000000000000000000000000000000000000000900463ffffffff16806322cf723914610072578063462e91ec1461009d5780636d2bc1eb14610165578063893d20e8146102275780638da5cb5b1461027e575b600080fd5b34801561007e57600080fd5b506100876102d5565b6040518082815260200191505060405180910390f35b3480156100a957600080fd5b50610163600480360360208110156100c057600080fd5b81019080803590602001906401000000008111156100dd57600080fd5b8201836020820111156100ef57600080fd5b8035906020019184600183028401116401000000008311171561011157600080fd5b91908080601f016020809104026020016040519081016040528093929190818152602001838380828437600081840152601f19601f8201169050808301925050505050505091929192905050506102df565b005b34801561017157600080fd5b5061019e6004803603602081101561018857600080fd5b81019080803590602001909291905050506103c1565b6040518084815260200180602001838152602001828103825284818151815260200191508051906020019080838360005b838110156101ea5780820151818401526020810190506101cf565b50505050905090810190601f1680156102175780820380516001836020036101000a031916815260200191505b5094505050505060405180910390f35b34801561023357600080fd5b5061023c610483565b604051808273ffffffffffffffffffffffffffffffffffffffff1673ffffffffffffffffffffffffffffffffffffffff16815260200191505060405180910390f35b34801561028a57600080fd5b506102936104ac565b604051808273ffffffffffffffffffffffffffffffffffffffff1673ffffffffffffffffffffffffffffffffffffffff16815260200191505060405180910390f35b6000600154905090565b3373ffffffffffffffffffffffffffffffffffffffff166000809054906101000a900473ffffffffffffffffffffffffffffffffffffffff1673ffffffffffffffffffffffffffffffffffffffff1614151561033a57600080fd5b6103426104d1565b6060604051908101604052806001548152602001838152602001600081525090508060036000600154815260200190815260200160002060008201518160000155602082015181600101908051906020019061039f9291906104f3565b5060408201518160020155905050600180600082825401925050819055505050565b6003602052806000526040600020600091509050806000015490806001018054600181600116156101000203166002900480601f0160208091040260200160405190810160405280929190818152602001828054600181600116156101000203166002900480156104735780601f1061044857610100808354040283529160200191610473565b820191906000526020600020905b81548152906001019060200180831161045657829003601f168201915b5050505050908060020154905083565b60008060009054906101000a900473ffffffffffffffffffffffffffffffffffffffff16905090565b6000809054906101000a900473ffffffffffffffffffffffffffffffffffffffff1681565b6060604051908101604052806000815260200160608152602001600081525090565b828054600181600116156101000203166002900490600052602060002090601f016020900481019282601f1061053457805160ff1916838001178555610562565b82800160010185558215610562579182015b82811115610561578251825591602001919060010190610546565b5b50905061056f9190610573565b5090565b61059591905b80821115610591576000816000905550600101610579565b5090565b9056fea165627a7a723058200ee62c5788f9a0785f20fc337e52d337a80337736985ca058a8d7e9bf3177cf50029",
  "source": "pragma solidity >=0.4.17;\r\ncontract VoteContract {\r\n    address public owner;\r\n    uint numberOfCandidate;\r\n    uint numberOfVoters;\r\n\r\nconstructor() public {\r\n    owner = msg.sender;\r\n    numberOfCandidate = 0;\r\n    numberOfVoters = 0;\r\n}\r\n\r\nfunction getOwner() public view returns(address) {\r\n    return owner;\r\n}\r\n\r\nmodifier onlyAdmin() {\r\n    require(owner == msg.sender);\r\n    _;\r\n}\r\n\r\nstruct Candidate {\r\n    uint id;\r\n    string name;\r\n    uint numOfVote;\r\n}\r\n\r\nmapping(uint => Candidate) public CandidateDetails;\r\n\r\nfunction addCandidate(string memory _name) public onlyAdmin {\r\n    Candidate memory newCandidate = Candidate({\r\n        id:numberOfCandidate,\r\n        name: _name,\r\n        numOfVote: 0\r\n    });\r\n    CandidateDetails[numberOfCandidate] = newCandidate;\r\n    numberOfCandidate += 1;\r\n}\r\nfunction getNumberOfCandidate() public view returns (uint){\r\n    return numberOfCandidate;\r\n}\r\n}",
  "sourcePath": "C:/Users/dilli/OneDrive/Desktop/Masters Program/ICS690-Blockchain Technology/OnlineVoting-DApp/contracts/VotingContract.sol",
  "compiler": {
    "name": "solc",
    "version": "0.5.0+commit.1d4f565a.Emscripten.clang"
  },
  "schemaVersion": "3.0.1",
  "updatedAt": "2024-02-20T00:41:17.535Z",
  "devdoc": {
    "methods": {}
  },
  "userdoc": {
    "methods": {}
  }
}