{
  "contractName": "VotingContract",
  "abi": [
    {
      "constant": true,
      "inputs": [
        {
          "name": "",
          "type": "uint256"
        }
      ],
      "name": "candidateDetails",
      "outputs": [
        {
          "name": "id",
          "type": "uint256"
        },
        {
          "name": "name",
          "type": "string"
        },
        {
          "name": "numOfVote",
          "type": "uint256"
        }
      ],
      "payable": false,
      "stateMutability": "view",
      "type": "function",
      "signature": "0x6247e532"
    },
    {
      "constant": true,
      "inputs": [],
      "name": "owner",
      "outputs": [
        {
          "name": "",
          "type": "address"
        }
      ],
      "payable": false,
      "stateMutability": "view",
      "type": "function",
      "signature": "0x8da5cb5b"
    },
    {
      "inputs": [],
      "payable": false,
      "stateMutability": "nonpayable",
      "type": "constructor",
      "signature": "constructor"
    },
    {
      "constant": true,
      "inputs": [],
      "name": "getOwner",
      "outputs": [
        {
          "name": "",
          "type": "address"
        }
      ],
      "payable": false,
      "stateMutability": "view",
      "type": "function",
      "signature": "0x893d20e8"
    },
    {
      "constant": true,
      "inputs": [],
      "name": "getNumberOfCandidate",
      "outputs": [
        {
          "name": "",
          "type": "uint256"
        }
      ],
      "payable": false,
      "stateMutability": "view",
      "type": "function",
      "signature": "0x22cf7239"
    },
    {
      "constant": true,
      "inputs": [],
      "name": "getNumberOfVoters",
      "outputs": [
        {
          "name": "",
          "type": "uint256"
        }
      ],
      "payable": false,
      "stateMutability": "view",
      "type": "function",
      "signature": "0x84865b66"
    },
    {
      "constant": false,
      "inputs": [
        {
          "name": "_name",
          "type": "string"
        }
      ],
      "name": "makeProposal",
      "outputs": [],
      "payable": false,
      "stateMutability": "nonpayable",
      "type": "function",
      "signature": "0xb72a7074"
    },
    {
      "constant": false,
      "inputs": [
        {
          "name": "duration",
          "type": "uint256"
        }
      ],
      "name": "setProposalDuration",
      "outputs": [],
      "payable": false,
      "stateMutability": "nonpayable",
      "type": "function",
      "signature": "0x7d007ac1"
    }
  ],
  "bytecode": "0x608060405234801561001057600080fd5b5061005e6040805190810160405280600481526020017f4a6f686e000000000000000000000000000000000000000000000000000000008152506100fd640100000000026401000000009004565b6100ab6040805190810160405280600781526020017f4d69636865616c000000000000000000000000000000000000000000000000008152506100fd640100000000026401000000009004565b6100f86040805190810160405280600481526020017f4d617279000000000000000000000000000000000000000000000000000000008152506100fd640100000000026401000000009004565b61021f565b6001600081548092919060010191905055506060604051908101604052806001548152602001828152602001600081525060036000600154815260200190815260200160002060008201518160000155602082015181600101908051906020019061016992919061017a565b506040820151816002015590505050565b828054600181600116156101000203166002900490600052602060002090601f016020900481019282601f106101bb57805160ff19168380011785556101e9565b828001600101855582156101e9579182015b828111156101e85782518255916020019190600101906101cd565b5b5090506101f691906101fa565b5090565b61021c91905b80821115610218576000816000905550600101610200565b5090565b90565b6105028061022e6000396000f3fe608060405260043610610083576000357c0100000000000000000000000000000000000000000000000000000000900463ffffffff16806322cf7239146100885780636247e532146100b35780637d007ac11461017557806384865b66146101b0578063893d20e8146101db5780638da5cb5b14610232578063b72a707414610289575b600080fd5b34801561009457600080fd5b5061009d610351565b6040518082815260200191505060405180910390f35b3480156100bf57600080fd5b506100ec600480360360208110156100d657600080fd5b810190808035906020019092919050505061035b565b6040518084815260200180602001838152602001828103825284818151815260200191508051906020019080838360005b8381101561013857808201518184015260208101905061011d565b50505050905090810190601f1680156101655780820380516001836020036101000a031916815260200191505b5094505050505060405180910390f35b34801561018157600080fd5b506101ae6004803603602081101561019857600080fd5b810190808035906020019092919050505061041d565b005b3480156101bc57600080fd5b506101c5610420565b6040518082815260200191505060405180910390f35b3480156101e757600080fd5b506101f061042a565b604051808273ffffffffffffffffffffffffffffffffffffffff1673ffffffffffffffffffffffffffffffffffffffff16815260200191505060405180910390f35b34801561023e57600080fd5b50610247610453565b604051808273ffffffffffffffffffffffffffffffffffffffff1673ffffffffffffffffffffffffffffffffffffffff16815260200191505060405180910390f35b34801561029557600080fd5b5061034f600480360360208110156102ac57600080fd5b81019080803590602001906401000000008111156102c957600080fd5b8201836020820111156102db57600080fd5b803590602001918460018302840111640100000000831117156102fd57600080fd5b91908080601f016020809104026020016040519081016040528093929190818152602001838380828437600081840152601f19601f820116905080830192505050505050509192919290505050610478565b005b6000600154905090565b6003602052806000526040600020600091509050806000015490806001018054600181600116156101000203166002900480601f01602080910402602001604051908101604052809291908181526020018280546001816001161561010002031660029004801561040d5780601f106103e25761010080835404028352916020019161040d565b820191906000526020600020905b8154815290600101906020018083116103f057829003601f168201915b5050505050908060020154905083565b50565b6000600254905090565b60008060009054906101000a900473ffffffffffffffffffffffffffffffffffffffff16905090565b6000809054906101000a900473ffffffffffffffffffffffffffffffffffffffff1681565b3373ffffffffffffffffffffffffffffffffffffffff166000809054906101000a900473ffffffffffffffffffffffffffffffffffffffff1673ffffffffffffffffffffffffffffffffffffffff161415156104d357600080fd5b5056fea165627a7a723058209946c99a2be023b449280bc31e4416415a930c104a0173e8779cc25f97d4efd70029",
  "source": "pragma solidity >=0.4.2;\r\ncontract VotingContract {\r\n    address public owner;\r\n    uint numberOfCandidate;\r\n    uint numberOfVoters;\r\n\r\nconstructor() public {\r\n    //owner = msg.sender;\r\n    //numberOfCandidate = 0;\r\n    //numberOfVoters = 0;\r\n    addCandidate(\"John\");\r\n    addCandidate(\"Micheal\");\r\n    addCandidate(\"Mary\");\r\n}\r\n\r\nfunction getOwner() public view returns(address) {\r\n    return owner;\r\n}\r\n\r\nmodifier onlyAdmin() {\r\n    require(owner == msg.sender);\r\n    _;\r\n}\r\n//candidate blueprint\r\nstruct Candidate {\r\n    uint id;\r\n    string name;\r\n    uint numOfVote;\r\n}\r\n//store instanciated candidate as a key value pair\r\nmapping(uint => Candidate) public candidateDetails;\r\n\r\nfunction addCandidate(string memory _name) private {\r\n    // Candidate memory newCandidate = Candidate({\r\n    //     id:numberOfCandidate,\r\n    //     name: _name,\r\n    //     numOfVote: 0\r\n    // });\r\n    //CandidateDetails[numberOfCandidate] = newCandidate;\r\n    numberOfCandidate ++;\r\n    candidateDetails[numberOfCandidate] = Candidate(numberOfCandidate, _name, 0);\r\n}\r\n\r\nfunction getNumberOfCandidate() public view returns (uint){\r\n    return numberOfCandidate;\r\n}\r\nfunction getNumberOfVoters() public view returns (uint) {\r\n    return numberOfVoters;\r\n}\r\n\r\nfunction makeProposal(string memory _name) public onlyAdmin(){\r\n    //TODO: make proposal for a candidate\r\n}\r\nfunction setProposalDuration(uint duration) public {\r\n    //TODO: set the proposal duration\r\n}\r\n\r\n}",
  "sourcePath": "C:/Users/dilli/OneDrive/Desktop/Masters Program/ICS690-Blockchain Technology/OnlineVoting-DApp/contracts/VotingContract.sol",
  "compiler": {
    "name": "solc",
    "version": "0.5.0+commit.1d4f565a.Emscripten.clang"
  },
  "schemaVersion": "3.0.1",
  "updatedAt": "2024-03-06T01:23:35.073Z",
  "devdoc": {
    "methods": {}
  },
  "userdoc": {
    "methods": {}
  }
}