{
  "contractName": "VotingContract",
  "abi": [
    {
      "constant": true,
      "inputs": [
        {
          "name": "",
          "type": "uint256"
        }
      ],
      "name": "candidateDetails",
      "outputs": [
        {
          "name": "id",
          "type": "uint256"
        },
        {
          "name": "name",
          "type": "string"
        },
        {
          "name": "numOfVote",
          "type": "uint256"
        }
      ],
      "payable": false,
      "stateMutability": "view",
      "type": "function",
      "signature": "0x6247e532"
    },
    {
      "constant": true,
      "inputs": [],
      "name": "owner",
      "outputs": [
        {
          "name": "",
          "type": "address"
        }
      ],
      "payable": false,
      "stateMutability": "view",
      "type": "function",
      "signature": "0x8da5cb5b"
    },
    {
      "constant": true,
      "inputs": [
        {
          "name": "",
          "type": "address"
        }
      ],
      "name": "voters",
      "outputs": [
        {
          "name": "",
          "type": "bool"
        }
      ],
      "payable": false,
      "stateMutability": "view",
      "type": "function",
      "signature": "0xa3ec138d"
    },
    {
      "inputs": [],
      "payable": false,
      "stateMutability": "nonpayable",
      "type": "constructor",
      "signature": "constructor"
    },
    {
      "constant": true,
      "inputs": [],
      "name": "getOwner",
      "outputs": [
        {
          "name": "",
          "type": "address"
        }
      ],
      "payable": false,
      "stateMutability": "view",
      "type": "function",
      "signature": "0x893d20e8"
    },
    {
      "constant": true,
      "inputs": [],
      "name": "getNumberOfCandidate",
      "outputs": [
        {
          "name": "",
          "type": "uint256"
        }
      ],
      "payable": false,
      "stateMutability": "view",
      "type": "function",
      "signature": "0x22cf7239"
    },
    {
      "constant": true,
      "inputs": [],
      "name": "getNumberOfVoters",
      "outputs": [
        {
          "name": "",
          "type": "uint256"
        }
      ],
      "payable": false,
      "stateMutability": "view",
      "type": "function",
      "signature": "0x84865b66"
    },
    {
      "constant": false,
      "inputs": [
        {
          "name": "_candidateId",
          "type": "uint256"
        }
      ],
      "name": "castVote",
      "outputs": [],
      "payable": false,
      "stateMutability": "nonpayable",
      "type": "function",
      "signature": "0x3eb76b9c"
    },
    {
      "constant": false,
      "inputs": [
        {
          "name": "_name",
          "type": "string"
        }
      ],
      "name": "makeProposal",
      "outputs": [],
      "payable": false,
      "stateMutability": "nonpayable",
      "type": "function",
      "signature": "0xb72a7074"
    },
    {
      "constant": false,
      "inputs": [
        {
          "name": "duration",
          "type": "uint256"
        }
      ],
      "name": "setProposalDuration",
      "outputs": [],
      "payable": false,
      "stateMutability": "nonpayable",
      "type": "function",
      "signature": "0x7d007ac1"
    }
  ],
  "bytecode": "0x608060405234801561001057600080fd5b5061005e6040805190810160405280600481526020017f4a6f686e000000000000000000000000000000000000000000000000000000008152506100fd640100000000026401000000009004565b6100ab6040805190810160405280600781526020017f4d69636865616c000000000000000000000000000000000000000000000000008152506100fd640100000000026401000000009004565b6100f86040805190810160405280600481526020017f4d617279000000000000000000000000000000000000000000000000000000008152506100fd640100000000026401000000009004565b61021f565b6001600081548092919060010191905055506060604051908101604052806001548152602001828152602001600081525060036000600154815260200190815260200160002060008201518160000155602082015181600101908051906020019061016992919061017a565b506040820151816002015590505050565b828054600181600116156101000203166002900490600052602060002090601f016020900481019282601f106101bb57805160ff19168380011785556101e9565b828001600101855582156101e9579182015b828111156101e85782518255916020019190600101906101cd565b5b5090506101f691906101fa565b5090565b61021c91905b80821115610218576000816000905550600101610200565b5090565b90565b6106d38061022e6000396000f3fe608060405260043610610099576000357c0100000000000000000000000000000000000000000000000000000000900463ffffffff16806322cf72391461009e5780633eb76b9c146100c95780636247e532146101045780637d007ac1146101c657806384865b6614610201578063893d20e81461022c5780638da5cb5b14610283578063a3ec138d146102da578063b72a707414610343575b600080fd5b3480156100aa57600080fd5b506100b361040b565b6040518082815260200191505060405180910390f35b3480156100d557600080fd5b50610102600480360360208110156100ec57600080fd5b8101908080359060200190929190505050610415565b005b34801561011057600080fd5b5061013d6004803603602081101561012757600080fd5b810190808035906020019092919050505061050c565b6040518084815260200180602001838152602001828103825284818151815260200191508051906020019080838360005b8381101561018957808201518184015260208101905061016e565b50505050905090810190601f1680156101b65780820380516001836020036101000a031916815260200191505b5094505050505060405180910390f35b3480156101d257600080fd5b506101ff600480360360208110156101e957600080fd5b81019080803590602001909291905050506105ce565b005b34801561020d57600080fd5b506102166105d1565b6040518082815260200191505060405180910390f35b34801561023857600080fd5b506102416105db565b604051808273ffffffffffffffffffffffffffffffffffffffff1673ffffffffffffffffffffffffffffffffffffffff16815260200191505060405180910390f35b34801561028f57600080fd5b50610298610604565b604051808273ffffffffffffffffffffffffffffffffffffffff1673ffffffffffffffffffffffffffffffffffffffff16815260200191505060405180910390f35b3480156102e657600080fd5b50610329600480360360208110156102fd57600080fd5b81019080803573ffffffffffffffffffffffffffffffffffffffff169060200190929190505050610629565b604051808215151515815260200191505060405180910390f35b34801561034f57600080fd5b506104096004803603602081101561036657600080fd5b810190808035906020019064010000000081111561038357600080fd5b82018360208201111561039557600080fd5b803590602001918460018302840111640100000000831117156103b757600080fd5b91908080601f016020809104026020016040519081016040528093929190818152602001838380828437600081840152601f19601f820116905080830192505050505050509192919290505050610649565b005b6000600154905090565b600460003373ffffffffffffffffffffffffffffffffffffffff1673ffffffffffffffffffffffffffffffffffffffff16815260200190815260200160002060009054906101000a900460ff1615151561046e57600080fd5b60008111801561048057506001548111155b151561048b57600080fd5b60036000828152602001908152602001600020600201600081548092919060010191905055506001600460003373ffffffffffffffffffffffffffffffffffffffff1673ffffffffffffffffffffffffffffffffffffffff16815260200190815260200160002060006101000a81548160ff02191690831515021790555050565b6003602052806000526040600020600091509050806000015490806001018054600181600116156101000203166002900480601f0160208091040260200160405190810160405280929190818152602001828054600181600116156101000203166002900480156105be5780601f10610593576101008083540402835291602001916105be565b820191906000526020600020905b8154815290600101906020018083116105a157829003601f168201915b5050505050908060020154905083565b50565b6000600254905090565b60008060009054906101000a900473ffffffffffffffffffffffffffffffffffffffff16905090565b6000809054906101000a900473ffffffffffffffffffffffffffffffffffffffff1681565b60046020528060005260406000206000915054906101000a900460ff1681565b3373ffffffffffffffffffffffffffffffffffffffff166000809054906101000a900473ffffffffffffffffffffffffffffffffffffffff1673ffffffffffffffffffffffffffffffffffffffff161415156106a457600080fd5b5056fea165627a7a72305820b906bf28005751764827c6586a751af680d4f9f5bb0edf6d3939d3a519cd271f0029",
  "source": "pragma solidity >=0.4.2;\r\ncontract VotingContract {\r\n    address public owner;\r\n    uint numberOfCandidate;\r\n    uint numberOfVoters;\r\n\r\nconstructor() public {\r\n    //owner = msg.sender;\r\n    //numberOfCandidate = 0;\r\n    //numberOfVoters = 0;\r\n    addCandidate(\"John\");\r\n    addCandidate(\"Micheal\");\r\n    addCandidate(\"Mary\");\r\n}\r\n\r\nfunction getOwner() public view returns(address) {\r\n    return owner;\r\n}\r\n\r\nmodifier onlyAdmin() {\r\n    require(owner == msg.sender);\r\n    _;\r\n}\r\n//candidate blueprint\r\nstruct Candidate {\r\n    uint id;\r\n    string name;\r\n    uint numOfVote;\r\n}\r\n//store instanciated candidate as a key value pair\r\nmapping(uint => Candidate) public candidateDetails;\r\n\r\n/*store voters information with address as key and boolean value as value.\r\nvalue is initially false to indicate that voter has not voted yet. After\r\ncasting vote, the value will be set to true.\r\n*/\r\nmapping(address => bool) public voters;\r\n\r\nfunction addCandidate(string memory _name) private {\r\n    // Candidate memory newCandidate = Candidate({\r\n    //     id:numberOfCandidate,\r\n    //     name: _name,\r\n    //     numOfVote: 0\r\n    // });\r\n    //CandidateDetails[numberOfCandidate] = newCandidate;\r\n    numberOfCandidate ++;\r\n    candidateDetails[numberOfCandidate] = Candidate(numberOfCandidate, _name, 0);\r\n}\r\n\r\nfunction getNumberOfCandidate() public view returns (uint){\r\n    return numberOfCandidate;\r\n}\r\nfunction getNumberOfVoters() public view returns (uint) {\r\n    return numberOfVoters;\r\n}\r\n\r\nfunction castVote(uint _candidateId) public {\r\n    //ensure the voter hasnot voted yet.\r\n    require(!voters[msg.sender]);\r\n    //ensure the vote will be cast only to listed candidate.\r\n    require(_candidateId > 0 && _candidateId <= numberOfCandidate);\r\n    //increase the number of votes received by candidate by 1\r\n    candidateDetails[_candidateId].numOfVote++;\r\n    //indicate that the voter has voted.\r\n    voters[msg.sender] = true;\r\n}\r\n\r\nfunction makeProposal(string memory _name) public onlyAdmin(){\r\n    //TODO: make proposal for a candidate\r\n}\r\nfunction setProposalDuration(uint duration) public {\r\n    //TODO: set the proposal duration\r\n}\r\n\r\n}",
  "sourcePath": "C:/Users/dilli/OneDrive/Desktop/Masters Program/ICS690-Blockchain Technology/OnlineVoting-DApp/contracts/VotingContract.sol",
  "compiler": {
    "name": "solc",
    "version": "0.5.0+commit.1d4f565a.Emscripten.clang"
  },
  "schemaVersion": "3.0.1",
  "updatedAt": "2024-03-07T01:00:41.539Z",
  "devdoc": {
    "methods": {}
  },
  "userdoc": {
    "methods": {}
  }
}