{
  "contractName": "VotingContract",
  "abi": [
    {
      "constant": true,
      "inputs": [
        {
          "name": "",
          "type": "uint256"
        }
      ],
      "name": "CandidateDetails",
      "outputs": [
        {
          "name": "id",
          "type": "uint256"
        },
        {
          "name": "name",
          "type": "string"
        },
        {
          "name": "numOfVote",
          "type": "uint256"
        }
      ],
      "payable": false,
      "stateMutability": "view",
      "type": "function",
      "signature": "0x6d2bc1eb"
    },
    {
      "constant": true,
      "inputs": [],
      "name": "owner",
      "outputs": [
        {
          "name": "",
          "type": "address"
        }
      ],
      "payable": false,
      "stateMutability": "view",
      "type": "function",
      "signature": "0x8da5cb5b"
    },
    {
      "inputs": [],
      "payable": false,
      "stateMutability": "nonpayable",
      "type": "constructor",
      "signature": "constructor"
    },
    {
      "constant": true,
      "inputs": [],
      "name": "getOwner",
      "outputs": [
        {
          "name": "",
          "type": "address"
        }
      ],
      "payable": false,
      "stateMutability": "view",
      "type": "function",
      "signature": "0x893d20e8"
    },
    {
      "constant": false,
      "inputs": [
        {
          "name": "_name",
          "type": "string"
        }
      ],
      "name": "addCandidate",
      "outputs": [],
      "payable": false,
      "stateMutability": "nonpayable",
      "type": "function",
      "signature": "0x462e91ec"
    },
    {
      "constant": true,
      "inputs": [],
      "name": "getNumberOfCandidate",
      "outputs": [
        {
          "name": "",
          "type": "uint256"
        }
      ],
      "payable": false,
      "stateMutability": "view",
      "type": "function",
      "signature": "0x22cf7239"
    },
    {
      "constant": true,
      "inputs": [],
      "name": "getNumberOfVoters",
      "outputs": [
        {
          "name": "",
          "type": "uint256"
        }
      ],
      "payable": false,
      "stateMutability": "view",
      "type": "function",
      "signature": "0x84865b66"
    }
  ],
  "bytecode": "0x608060405234801561001057600080fd5b50336000806101000a81548173ffffffffffffffffffffffffffffffffffffffff021916908373ffffffffffffffffffffffffffffffffffffffff16021790555060006001819055506000600281905550610604806100706000396000f3fe608060405260043610610078576000357c0100000000000000000000000000000000000000000000000000000000900463ffffffff16806322cf72391461007d578063462e91ec146100a85780636d2bc1eb1461017057806384865b6614610232578063893d20e81461025d5780638da5cb5b146102b4575b600080fd5b34801561008957600080fd5b5061009261030b565b6040518082815260200191505060405180910390f35b3480156100b457600080fd5b5061016e600480360360208110156100cb57600080fd5b81019080803590602001906401000000008111156100e857600080fd5b8201836020820111156100fa57600080fd5b8035906020019184600183028401116401000000008311171561011c57600080fd5b91908080601f016020809104026020016040519081016040528093929190818152602001838380828437600081840152601f19601f820116905080830192505050505050509192919290505050610315565b005b34801561017c57600080fd5b506101a96004803603602081101561019357600080fd5b81019080803590602001909291905050506103f7565b6040518084815260200180602001838152602001828103825284818151815260200191508051906020019080838360005b838110156101f55780820151818401526020810190506101da565b50505050905090810190601f1680156102225780820380516001836020036101000a031916815260200191505b5094505050505060405180910390f35b34801561023e57600080fd5b506102476104b9565b6040518082815260200191505060405180910390f35b34801561026957600080fd5b506102726104c3565b604051808273ffffffffffffffffffffffffffffffffffffffff1673ffffffffffffffffffffffffffffffffffffffff16815260200191505060405180910390f35b3480156102c057600080fd5b506102c96104ec565b604051808273ffffffffffffffffffffffffffffffffffffffff1673ffffffffffffffffffffffffffffffffffffffff16815260200191505060405180910390f35b6000600154905090565b3373ffffffffffffffffffffffffffffffffffffffff166000809054906101000a900473ffffffffffffffffffffffffffffffffffffffff1673ffffffffffffffffffffffffffffffffffffffff1614151561037057600080fd5b610378610511565b606060405190810160405280600154815260200183815260200160008152509050806003600060015481526020019081526020016000206000820151816000015560208201518160010190805190602001906103d5929190610533565b5060408201518160020155905050600180600082825401925050819055505050565b6003602052806000526040600020600091509050806000015490806001018054600181600116156101000203166002900480601f0160208091040260200160405190810160405280929190818152602001828054600181600116156101000203166002900480156104a95780601f1061047e576101008083540402835291602001916104a9565b820191906000526020600020905b81548152906001019060200180831161048c57829003601f168201915b5050505050908060020154905083565b6000600254905090565b60008060009054906101000a900473ffffffffffffffffffffffffffffffffffffffff16905090565b6000809054906101000a900473ffffffffffffffffffffffffffffffffffffffff1681565b6060604051908101604052806000815260200160608152602001600081525090565b828054600181600116156101000203166002900490600052602060002090601f016020900481019282601f1061057457805160ff19168380011785556105a2565b828001600101855582156105a2579182015b828111156105a1578251825591602001919060010190610586565b5b5090506105af91906105b3565b5090565b6105d591905b808211156105d15760008160009055506001016105b9565b5090565b9056fea165627a7a723058202e8e0340cf64a1a12a47d3e30b424b26f3f6622023da55ed3ec88ecea5ef42d00029",
  "source": "pragma solidity >=0.4.17;\r\ncontract VotingContract {\r\n    address public owner;\r\n    uint numberOfCandidate;\r\n    uint numberOfVoters;\r\n\r\nconstructor() public {\r\n    owner = msg.sender;\r\n    numberOfCandidate = 0;\r\n    numberOfVoters = 0;\r\n}\r\n\r\nfunction getOwner() public view returns(address) {\r\n    return owner;\r\n}\r\n\r\nmodifier onlyAdmin() {\r\n    require(owner == msg.sender);\r\n    _;\r\n}\r\n\r\nstruct Candidate {\r\n    uint id;\r\n    string name;\r\n    uint numOfVote;\r\n}\r\n\r\nmapping(uint => Candidate) public CandidateDetails;\r\n\r\nfunction addCandidate(string memory _name) public onlyAdmin {\r\n    Candidate memory newCandidate = Candidate({\r\n        id:numberOfCandidate,\r\n        name: _name,\r\n        numOfVote: 0\r\n    });\r\n    CandidateDetails[numberOfCandidate] = newCandidate;\r\n    numberOfCandidate += 1;\r\n}\r\nfunction getNumberOfCandidate() public view returns (uint){\r\n    return numberOfCandidate;\r\n}\r\nfunction getNumberOfVoters() public view returns (uint) {\r\n    return numberOfVoters;\r\n}\r\n/*\r\nfunction makeProposal(string memory _name) public onlyAdmin{\r\n    //TODO: make proposal for a candidate\r\n}\r\nfunction setProposalDuration(uint duration) public {\r\n    //TODO: set the proposal duration\r\n}\r\n*/\r\n}",
  "sourcePath": "C:/Users/dilli/OneDrive/Desktop/Masters Program/ICS690-Blockchain Technology/OnlineVoting-DApp/contracts/VotingContract.sol",
  "compiler": {
    "name": "solc",
    "version": "0.5.0+commit.1d4f565a.Emscripten.clang"
  },
  "schemaVersion": "3.0.1",
  "updatedAt": "2024-03-03T22:44:01.560Z",
  "devdoc": {
    "methods": {}
  },
  "userdoc": {
    "methods": {}
  }
}