{
  "contractName": "VotingContract",
  "abi": [
    {
      "constant": true,
      "inputs": [
        {
          "name": "",
          "type": "uint256"
        }
      ],
      "name": "candidateDetails",
      "outputs": [
        {
          "name": "id",
          "type": "uint256"
        },
        {
          "name": "name",
          "type": "string"
        },
        {
          "name": "numOfVote",
          "type": "uint256"
        }
      ],
      "payable": false,
      "stateMutability": "view",
      "type": "function",
      "signature": "0x6247e532"
    },
    {
      "constant": true,
      "inputs": [],
      "name": "owner",
      "outputs": [
        {
          "name": "",
          "type": "address"
        }
      ],
      "payable": false,
      "stateMutability": "view",
      "type": "function",
      "signature": "0x8da5cb5b"
    },
    {
      "constant": true,
      "inputs": [
        {
          "name": "",
          "type": "address"
        }
      ],
      "name": "voters",
      "outputs": [
        {
          "name": "",
          "type": "bool"
        }
      ],
      "payable": false,
      "stateMutability": "view",
      "type": "function",
      "signature": "0xa3ec138d"
    },
    {
      "inputs": [],
      "payable": false,
      "stateMutability": "nonpayable",
      "type": "constructor",
      "signature": "constructor"
    },
    {
      "anonymous": false,
      "inputs": [
        {
          "indexed": true,
          "name": "_candidateId",
          "type": "uint256"
        }
      ],
      "name": "voteCastedEvent",
      "type": "event",
      "signature": "0xec787d368cbdf7a680ddeb577b27e1c2e235a626f75489c6c7e40b0219952064"
    },
    {
      "constant": true,
      "inputs": [],
      "name": "getOwner",
      "outputs": [
        {
          "name": "",
          "type": "address"
        }
      ],
      "payable": false,
      "stateMutability": "view",
      "type": "function",
      "signature": "0x893d20e8"
    },
    {
      "constant": false,
      "inputs": [
        {
          "name": "_name",
          "type": "string"
        }
      ],
      "name": "addCandidate",
      "outputs": [],
      "payable": false,
      "stateMutability": "nonpayable",
      "type": "function",
      "signature": "0x462e91ec"
    },
    {
      "constant": true,
      "inputs": [],
      "name": "getNumberOfCandidate",
      "outputs": [
        {
          "name": "",
          "type": "uint256"
        }
      ],
      "payable": false,
      "stateMutability": "view",
      "type": "function",
      "signature": "0x22cf7239"
    },
    {
      "constant": true,
      "inputs": [],
      "name": "getNumberOfVoters",
      "outputs": [
        {
          "name": "",
          "type": "uint256"
        }
      ],
      "payable": false,
      "stateMutability": "view",
      "type": "function",
      "signature": "0x84865b66"
    },
    {
      "constant": false,
      "inputs": [
        {
          "name": "_candidateId",
          "type": "uint256"
        }
      ],
      "name": "castVote",
      "outputs": [],
      "payable": false,
      "stateMutability": "nonpayable",
      "type": "function",
      "signature": "0x3eb76b9c"
    }
  ],
  "bytecode": "0x608060405234801561001057600080fd5b50336000806101000a81548173ffffffffffffffffffffffffffffffffffffffff021916908373ffffffffffffffffffffffffffffffffffffffff1602179055506000600181905550600060028190555061077b806100706000396000f3fe60806040526004361061008e576000357c0100000000000000000000000000000000000000000000000000000000900463ffffffff16806322cf7239146100935780633eb76b9c146100be578063462e91ec146100f95780636247e532146101c157806384865b6614610283578063893d20e8146102ae5780638da5cb5b14610305578063a3ec138d1461035c575b600080fd5b34801561009f57600080fd5b506100a86103c5565b6040518082815260200191505060405180910390f35b3480156100ca57600080fd5b506100f7600480360360208110156100e157600080fd5b81019080803590602001909291905050506103cf565b005b34801561010557600080fd5b506101bf6004803603602081101561011c57600080fd5b810190808035906020019064010000000081111561013957600080fd5b82018360208201111561014b57600080fd5b8035906020019184600183028401116401000000008311171561016d57600080fd5b91908080601f016020809104026020016040519081016040528093929190818152602001838380828437600081840152601f19601f8201169050808301925050505050505091929192905050506104f3565b005b3480156101cd57600080fd5b506101fa600480360360208110156101e457600080fd5b8101908080359060200190929190505050610570565b6040518084815260200180602001838152602001828103825284818151815260200191508051906020019080838360005b8381101561024657808201518184015260208101905061022b565b50505050905090810190601f1680156102735780820380516001836020036101000a031916815260200191505b5094505050505060405180910390f35b34801561028f57600080fd5b50610298610632565b6040518082815260200191505060405180910390f35b3480156102ba57600080fd5b506102c361063c565b604051808273ffffffffffffffffffffffffffffffffffffffff1673ffffffffffffffffffffffffffffffffffffffff16815260200191505060405180910390f35b34801561031157600080fd5b5061031a610665565b604051808273ffffffffffffffffffffffffffffffffffffffff1673ffffffffffffffffffffffffffffffffffffffff16815260200191505060405180910390f35b34801561036857600080fd5b506103ab6004803603602081101561037f57600080fd5b81019080803573ffffffffffffffffffffffffffffffffffffffff16906020019092919050505061068a565b604051808215151515815260200191505060405180910390f35b6000600154905090565b600460003373ffffffffffffffffffffffffffffffffffffffff1673ffffffffffffffffffffffffffffffffffffffff16815260200190815260200160002060009054906101000a900460ff1615151561042857600080fd5b60008111801561043a57506001548111155b151561044557600080fd5b60036000828152602001908152602001600020600201600081548092919060010191905055506001600460003373ffffffffffffffffffffffffffffffffffffffff1673ffffffffffffffffffffffffffffffffffffffff16815260200190815260200160002060006101000a81548160ff021916908315150217905550807fec787d368cbdf7a680ddeb577b27e1c2e235a626f75489c6c7e40b021995206460405160405180910390a250565b6001600081548092919060010191905055506060604051908101604052806001548152602001828152602001600081525060036000600154815260200190815260200160002060008201518160000155602082015181600101908051906020019061055f9291906106aa565b506040820151816002015590505050565b6003602052806000526040600020600091509050806000015490806001018054600181600116156101000203166002900480601f0160208091040260200160405190810160405280929190818152602001828054600181600116156101000203166002900480156106225780601f106105f757610100808354040283529160200191610622565b820191906000526020600020905b81548152906001019060200180831161060557829003601f168201915b5050505050908060020154905083565b6000600254905090565b60008060009054906101000a900473ffffffffffffffffffffffffffffffffffffffff16905090565b6000809054906101000a900473ffffffffffffffffffffffffffffffffffffffff1681565b60046020528060005260406000206000915054906101000a900460ff1681565b828054600181600116156101000203166002900490600052602060002090601f016020900481019282601f106106eb57805160ff1916838001178555610719565b82800160010185558215610719579182015b828111156107185782518255916020019190600101906106fd565b5b509050610726919061072a565b5090565b61074c91905b80821115610748576000816000905550600101610730565b5090565b9056fea165627a7a72305820f4541327df3a3e5156b906ee6e6c3fb2368f7abc7f933c9d56290647436a98200029",
  "source": "pragma solidity >=0.4.2;\r\ncontract VotingContract {\r\n    address public owner;\r\n    uint numberOfCandidate;\r\n    uint numberOfVoters;\r\n\r\nconstructor() public {\r\n    owner = msg.sender;\r\n    numberOfCandidate = 0;\r\n    numberOfVoters = 0;\r\n}\r\n\r\nfunction getOwner() public view returns(address) {\r\n    return owner;\r\n}\r\n\r\nmodifier onlyAdmin {\r\n    require(owner == msg.sender);\r\n    _;\r\n}\r\n//candidate blueprint\r\nstruct Candidate {\r\n    uint id;\r\n    string name;\r\n    uint numOfVote;\r\n}\r\n//store instanciated candidate as a key value pair\r\nmapping(uint => Candidate) public candidateDetails;\r\n\r\n//vote casted event\r\nevent voteCastedEvent (\r\n    uint indexed _candidateId\r\n);\r\n\r\n/*store voters information with address as key and boolean value as value.\r\nvalue is initially false to indicate that voter has not voted yet. After\r\ncasting vote, the value will be set to true.\r\n*/\r\nmapping(address => bool) public voters;\r\n\r\nfunction addCandidate(string memory _name) public {\r\n    numberOfCandidate ++;\r\n    candidateDetails[numberOfCandidate] = Candidate(numberOfCandidate, _name, 0);\r\n}\r\n\r\nfunction getNumberOfCandidate() public view returns (uint){\r\n    return numberOfCandidate;\r\n}\r\nfunction getNumberOfVoters() public view returns (uint) {\r\n    return numberOfVoters;\r\n}\r\n\r\nfunction castVote(uint _candidateId) public {\r\n    //ensure the voter hasnot voted yet.\r\n    require(!voters[msg.sender]);\r\n    //ensure the vote will be cast only to listed candidate.\r\n    require(_candidateId > 0 && _candidateId <= numberOfCandidate);\r\n    //increase the number of votes received by candidate by 1\r\n    candidateDetails[_candidateId].numOfVote++;\r\n    //indicate that the voter has voted.\r\n    voters[msg.sender] = true;\r\n    //trigger vote casted event\r\n    emit voteCastedEvent(_candidateId);\r\n}\r\n}",
  "sourcePath": "C:/Users/dilli/OneDrive/Desktop/Masters Program/ICS690-Blockchain Technology/OnlineVoting-DApp/contracts/VotingContract.sol",
  "compiler": {
    "name": "solc",
    "version": "0.5.0+commit.1d4f565a.Emscripten.clang"
  },
  "schemaVersion": "3.0.1",
  "updatedAt": "2024-04-06T05:06:03.432Z",
  "devdoc": {
    "methods": {}
  },
  "userdoc": {
    "methods": {}
  }
}